:03000000020006F5
:03005F0002000399
:0300030002008375
:20006200AE82AF83EE4F60187C627D008C028D031CBCFF011DEA4B70F31EBEFF011F80E402
:2000820022C294D293D292D291C2907580FF9000961200627F00E58025E0F580900096C096
:2000A20007120062D0070FBF080040EA7580FF9000961200627F00E580C313F58090009609
:0F00C200C007120062D0070FBF080040EA80BCE1
:06003500E478FFF6D8FD9F
:200013007900E94400601B7A009000D5780175A000E493F2A308B8000205A0D9F4DAF275BE
:02003300A0FF2C
:20003B007800E84400600A790175A000E4F309D8FC7800E84400600C7900900001E4F0A3C3
:04005B00D8FCD9FAFA
:0D0006007581071200D1E58260030200033E
:0400D1007582002212
:00000001FF
